{
  "address": "0x3F7b6F224c54010F431267650073660a5a60b688",
  "abi": [
    {
      "inputs": [
        {
          "internalType": "address",
          "name": "_nftContract",
          "type": "address"
        }
      ],
      "stateMutability": "nonpayable",
      "type": "constructor"
    },
    {
      "inputs": [],
      "name": "POINTS_TO_MINT",
      "outputs": [
        {
          "internalType": "uint256",
          "name": "",
          "type": "uint256"
        }
      ],
      "stateMutability": "view",
      "type": "function"
    },
    {
      "inputs": [],
      "name": "claimPoints",
      "outputs": [],
      "stateMutability": "nonpayable",
      "type": "function"
    },
    {
      "inputs": [],
      "name": "mintFlag",
      "outputs": [],
      "stateMutability": "nonpayable",
      "type": "function"
    },
    {
      "inputs": [],
      "name": "nftContract",
      "outputs": [
        {
          "internalType": "address",
          "name": "",
          "type": "address"
        }
      ],
      "stateMutability": "view",
      "type": "function"
    },
    {
      "inputs": [
        {
          "internalType": "address",
          "name": "",
          "type": "address"
        }
      ],
      "name": "points",
      "outputs": [
        {
          "internalType": "uint256",
          "name": "",
          "type": "uint256"
        }
      ],
      "stateMutability": "view",
      "type": "function"
    },
    {
      "inputs": [],
      "name": "resetPoints",
      "outputs": [],
      "stateMutability": "nonpayable",
      "type": "function"
    }
  ],
  "transactionHash": "0x6f1404114ef287df7b482256ad83c0edf035f9476d80a3bb55ccf8eeb6810413",
  "args": [
    "0x201750186f1b7e434373475713d9bcba0dF75eD5"
  ],
  "numDeployments": 1,
  "solcInputHash": "09e38c27414f652e58313b3598369c65",
  "bytecode": "0x608060405234801561001057600080fd5b5060405161041f38038061041f83398101604081905261002f91610054565b600080546001600160a01b0319166001600160a01b0392909216919091179055610084565b60006020828403121561006657600080fd5b81516001600160a01b038116811461007d57600080fd5b9392505050565b61038c806100936000396000f3fe608060405234801561001057600080fd5b50600436106100625760003560e01c806304d092c7146100675780631e4696ae14610071578063358b816614610086578063bf3d7241146100b9578063d56d229d146100c1578063e00d023f146100ec575b600080fd5b61006f6100f4565b005b61006f32600090815260016020526040812055565b6100a66100943660046102e4565b60016020526000908152604090205481565b6040519081526020015b60405180910390f35b6100a6600a81565b6000546100d4906001600160a01b031681565b6040516001600160a01b0390911681526020016100b0565b61006f610205565b326000908152600160205260409020541561014f5760405162461bcd60e51b8152602060048201526016602482015275416c726561647920636c61696d656420706f696e747360501b60448201526064015b60405180910390fd5b60405160009033908281818181865af19150503d806000811461018e576040519150601f19603f3d011682016040523d82523d6000602084013e610193565b606091505b50509050806101db5760405162461bcd60e51b8152602060048201526014602482015273115e1d195c9b985b0818d85b1b0819985a5b195960621b6044820152606401610146565b32600090815260016020819052604082208054919290916101fd90849061032a565b909155505050565b32600090815260016020526040902054600a11156102595760405162461bcd60e51b81526020600482015260116024820152704e6f7420656e6f75676820706f696e747360781b6044820152606401610146565b3260009081526001602052604081208054600a9290610279908490610343565b90915550506000546040516340c10f1960e01b8152326004820152600560248201526001600160a01b03909116906340c10f1990604401600060405180830381600087803b1580156102ca57600080fd5b505af11580156102de573d6000803e3d6000fd5b50505050565b6000602082840312156102f657600080fd5b81356001600160a01b038116811461030d57600080fd5b9392505050565b634e487b7160e01b600052601160045260246000fd5b8082018082111561033d5761033d610314565b92915050565b8181038181111561033d5761033d61031456fea2646970667358221220b44829f6b8ecf18c8b4063f536968a1bf6548db6e3ef7fe8b69f5ac1bff6009f64736f6c63430008140033",
  "devdoc": {
    "kind": "dev",
    "methods": {},
    "version": 1
  },
  "userdoc": {
    "kind": "user",
    "methods": {},
    "version": 1
  },
  "storageLayout": {
    "storage": [
      {
        "astId": 3958,
        "contract": "contracts/Challenge5.sol:Challenge5",
        "label": "nftContract",
        "offset": 0,
        "slot": "0",
        "type": "t_address"
      },
      {
        "astId": 3962,
        "contract": "contracts/Challenge5.sol:Challenge5",
        "label": "points",
        "offset": 0,
        "slot": "1",
        "type": "t_mapping(t_address,t_uint256)"
      }
    ],
    "types": {
      "t_address": {
        "encoding": "inplace",
        "label": "address",
        "numberOfBytes": "20"
      },
      "t_mapping(t_address,t_uint256)": {
        "encoding": "mapping",
        "key": "t_address",
        "label": "mapping(address => uint256)",
        "numberOfBytes": "32",
        "value": "t_uint256"
      },
      "t_uint256": {
        "encoding": "inplace",
        "label": "uint256",
        "numberOfBytes": "32"
      }
    }
  }
}