{
  "address": "0xa7B10E979c704ad5Fa20c45C221283fC3005dCD0",
  "abi": [
    {
      "inputs": [
        {
          "internalType": "address",
          "name": "_nftContract",
          "type": "address"
        }
      ],
      "stateMutability": "nonpayable",
      "type": "constructor"
    },
    {
      "anonymous": false,
      "inputs": [
        {
          "indexed": true,
          "internalType": "address",
          "name": "team",
          "type": "address"
        },
        {
          "indexed": false,
          "internalType": "string",
          "name": "name",
          "type": "string"
        },
        {
          "indexed": false,
          "internalType": "uint8",
          "name": "teamSize",
          "type": "uint8"
        }
      ],
      "name": "TeamInit",
      "type": "event"
    },
    {
      "inputs": [],
      "name": "nftContract",
      "outputs": [
        {
          "internalType": "address",
          "name": "",
          "type": "address"
        }
      ],
      "stateMutability": "view",
      "type": "function"
    },
    {
      "inputs": [
        {
          "internalType": "string",
          "name": "_name",
          "type": "string"
        },
        {
          "internalType": "uint8",
          "name": "_teamSize",
          "type": "uint8"
        }
      ],
      "name": "registerTeam",
      "outputs": [],
      "stateMutability": "nonpayable",
      "type": "function"
    },
    {
      "inputs": [
        {
          "internalType": "address",
          "name": "",
          "type": "address"
        }
      ],
      "name": "teamInfo",
      "outputs": [
        {
          "internalType": "string",
          "name": "name",
          "type": "string"
        },
        {
          "internalType": "uint8",
          "name": "teamSize",
          "type": "uint8"
        }
      ],
      "stateMutability": "view",
      "type": "function"
    }
  ],
  "transactionHash": "0xa082164b9c1199c59fa92fab049a57574cfe98b2c4c36f137214bb2c1c2c1de9",
  "args": [
    "0x201750186f1b7e434373475713d9bcba0dF75eD5"
  ],
  "numDeployments": 1,
  "solcInputHash": "09e38c27414f652e58313b3598369c65",
  "bytecode": "0x608060405234801561001057600080fd5b5060405161068d38038061068d83398101604081905261002f91610054565b600080546001600160a01b0319166001600160a01b0392909216919091179055610084565b60006020828403121561006657600080fd5b81516001600160a01b038116811461007d57600080fd5b9392505050565b6105fa806100936000396000f3fe608060405234801561001057600080fd5b50600436106100415760003560e01c8063cb3119bd14610046578063d56d229d14610070578063ff967cf61461009b575b600080fd5b610059610054366004610309565b6100b0565b604051610067929190610339565b60405180910390f35b600054610083906001600160a01b031681565b6040516001600160a01b039091168152602001610067565b6100ae6100a93660046103bd565b610157565b005b6001602052600090815260409020805481906100cb9061047f565b80601f01602080910402602001604051908101604052809291908181526020018280546100f79061047f565b80156101445780601f1061011957610100808354040283529160200191610144565b820191906000526020600020905b81548152906001019060200180831161012757829003601f168201915b5050506001909301549192505060ff1682565b60008251116101a45760405162461bcd60e51b81526020600482015260146024820152734e616d652063616e6e6f7420626520656d70747960601b60448201526064015b60405180910390fd5b60008160ff161180156101bb575060048160ff1611155b6102115760405162461bcd60e51b815260206004820152602160248201527f5465616d2073697a65206d757374206265206265747765656e203120616e64206044820152600d60fa1b606482015260840161019b565b60408051808201825283815260ff8316602080830191909152336000908152600190915291909120815181906102479082610504565b50602091909101516001909101805460ff191660ff90921691909117905560405133907f44d13ea1219e8d0d9ad42a46fdac7e9ae482b40886fe4a77a034ffc616c0c912906102999085908590610339565b60405180910390a26000546040516340c10f1960e01b8152336004820152600160248201526001600160a01b03909116906340c10f1990604401600060405180830381600087803b1580156102ed57600080fd5b505af1158015610301573d6000803e3d6000fd5b505050505050565b60006020828403121561031b57600080fd5b81356001600160a01b038116811461033257600080fd5b9392505050565b604081526000835180604084015260005b81811015610367576020818701810151606086840101520161034a565b506000606082850101526060601f19601f83011684010191505060ff831660208301529392505050565b634e487b7160e01b600052604160045260246000fd5b803560ff811681146103b857600080fd5b919050565b600080604083850312156103d057600080fd5b823567ffffffffffffffff808211156103e857600080fd5b818501915085601f8301126103fc57600080fd5b81358181111561040e5761040e610391565b604051601f8201601f19908116603f0116810190838211818310171561043657610436610391565b8160405282815288602084870101111561044f57600080fd5b826020860160208301376000602084830101528096505050505050610476602084016103a7565b90509250929050565b600181811c9082168061049357607f821691505b6020821081036104b357634e487b7160e01b600052602260045260246000fd5b50919050565b601f8211156104ff57600081815260208120601f850160051c810160208610156104e05750805b601f850160051c820191505b81811015610301578281556001016104ec565b505050565b815167ffffffffffffffff81111561051e5761051e610391565b6105328161052c845461047f565b846104b9565b602080601f831160018114610567576000841561054f5750858301515b600019600386901b1c1916600185901b178555610301565b600085815260208120601f198616915b8281101561059657888601518255948401946001909101908401610577565b50858210156105b45787850151600019600388901b60f8161c191681555b5050505050600190811b0190555056fea264697066735822122012c69f4d20b79a9a3e539e6294fb82e96dcf3a0708facc69d6d67733337a75c264736f6c63430008140033",
  "devdoc": {
    "kind": "dev",
    "methods": {},
    "version": 1
  },
  "userdoc": {
    "kind": "user",
    "methods": {},
    "version": 1
  },
  "storageLayout": {
    "storage": [
      {
        "astId": 3410,
        "contract": "contracts/Challenge1.sol:Challenge1",
        "label": "nftContract",
        "offset": 0,
        "slot": "0",
        "type": "t_address"
      },
      {
        "astId": 3420,
        "contract": "contracts/Challenge1.sol:Challenge1",
        "label": "teamInfo",
        "offset": 0,
        "slot": "1",
        "type": "t_mapping(t_address,t_struct(TeamInfo)3415_storage)"
      }
    ],
    "types": {
      "t_address": {
        "encoding": "inplace",
        "label": "address",
        "numberOfBytes": "20"
      },
      "t_mapping(t_address,t_struct(TeamInfo)3415_storage)": {
        "encoding": "mapping",
        "key": "t_address",
        "label": "mapping(address => struct Challenge1.TeamInfo)",
        "numberOfBytes": "32",
        "value": "t_struct(TeamInfo)3415_storage"
      },
      "t_string_storage": {
        "encoding": "bytes",
        "label": "string",
        "numberOfBytes": "32"
      },
      "t_struct(TeamInfo)3415_storage": {
        "encoding": "inplace",
        "label": "struct Challenge1.TeamInfo",
        "members": [
          {
            "astId": 3412,
            "contract": "contracts/Challenge1.sol:Challenge1",
            "label": "name",
            "offset": 0,
            "slot": "0",
            "type": "t_string_storage"
          },
          {
            "astId": 3414,
            "contract": "contracts/Challenge1.sol:Challenge1",
            "label": "teamSize",
            "offset": 0,
            "slot": "1",
            "type": "t_uint8"
          }
        ],
        "numberOfBytes": "64"
      },
      "t_uint8": {
        "encoding": "inplace",
        "label": "uint8",
        "numberOfBytes": "1"
      }
    }
  }
}