{
  "address": "0xf5B83881611cF10d1aB6959Adb938E4bF623bEF3",
  "abi": [
    {
      "inputs": [
        {
          "internalType": "address",
          "name": "_nftContract",
          "type": "address"
        }
      ],
      "stateMutability": "nonpayable",
      "type": "constructor"
    },
    {
      "inputs": [],
      "name": "justCallMe",
      "outputs": [],
      "stateMutability": "nonpayable",
      "type": "function"
    },
    {
      "inputs": [],
      "name": "nftContract",
      "outputs": [
        {
          "internalType": "address",
          "name": "",
          "type": "address"
        }
      ],
      "stateMutability": "view",
      "type": "function"
    }
  ],
  "transactionHash": "0x4fd52011ce2a7acc9ba7ef0222686cae3d4e18dad702367d5873685b37e38542",
  "args": [
    "0x201750186f1b7e434373475713d9bcba0dF75eD5"
  ],
  "numDeployments": 1,
  "solcInputHash": "09e38c27414f652e58313b3598369c65",
  "bytecode": "0x608060405234801561001057600080fd5b506040516101e43803806101e483398101604081905261002f91610054565b600080546001600160a01b0319166001600160a01b0392909216919091179055610084565b60006020828403121561006657600080fd5b81516001600160a01b038116811461007d57600080fd5b9392505050565b610151806100936000396000f3fe608060405234801561001057600080fd5b50600436106100365760003560e01c806382cb05c61461003b578063d56d229d14610045575b600080fd5b610043610074565b005b600054610058906001600160a01b031681565b6040516001600160a01b03909116815260200160405180910390f35b3233036100b55760405162461bcd60e51b815260206004820152600b60248201526a139bdd08185b1b1bddd95960aa1b604482015260640160405180910390fd5b6000546040516340c10f1960e01b8152326004820152600260248201526001600160a01b03909116906340c10f1990604401600060405180830381600087803b15801561010157600080fd5b505af1158015610115573d6000803e3d6000fd5b5050505056fea2646970667358221220062bce93a4089e835a788eefa12a00cb427a6d96fc9b4e0246fb9ed9b0fbe93664736f6c63430008140033",
  "devdoc": {
    "kind": "dev",
    "methods": {},
    "version": 1
  },
  "userdoc": {
    "kind": "user",
    "methods": {},
    "version": 1
  },
  "storageLayout": {
    "storage": [
      {
        "astId": 3737,
        "contract": "contracts/Challenge2.sol:Challenge2",
        "label": "nftContract",
        "offset": 0,
        "slot": "0",
        "type": "t_address"
      }
    ],
    "types": {
      "t_address": {
        "encoding": "inplace",
        "label": "address",
        "numberOfBytes": "20"
      }
    }
  }
}