{
  "address": "0x3e0a359430597B8FfdC58D0454c40be6d58F2953",
  "abi": [
    {
      "inputs": [
        {
          "internalType": "address",
          "name": "_nftContract",
          "type": "address"
        }
      ],
      "stateMutability": "nonpayable",
      "type": "constructor"
    },
    {
      "inputs": [],
      "name": "mintFlag",
      "outputs": [],
      "stateMutability": "nonpayable",
      "type": "function"
    },
    {
      "inputs": [],
      "name": "nftContract",
      "outputs": [
        {
          "internalType": "address",
          "name": "",
          "type": "address"
        }
      ],
      "stateMutability": "view",
      "type": "function"
    }
  ],
  "transactionHash": "0x71041dc24393cc87ddc19aaedd86e6b17b7d36cc34c51efcd8ff77fdba4a40e4",
  "args": [
    "0x201750186f1b7e434373475713d9bcba0dF75eD5"
  ],
  "numDeployments": 1,
  "solcInputHash": "09e38c27414f652e58313b3598369c65",
  "bytecode": "0x608060405234801561001057600080fd5b5060405161022638038061022683398101604081905261002f91610054565b600080546001600160a01b0319166001600160a01b0392909216919091179055610084565b60006020828403121561006657600080fd5b81516001600160a01b038116811461007d57600080fd5b9392505050565b610193806100936000396000f3fe608060405234801561001057600080fd5b50600436106100365760003560e01c8063d56d229d1461003b578063e00d023f1461006a575b600080fd5b60005461004e906001600160a01b031681565b6040516001600160a01b03909116815260200160405180910390f35b610072610074565b005b3233036100b65760405162461bcd60e51b815260206004820152600b60248201526a139bdd08185b1b1bddd95960aa1b60448201526064015b60405180910390fd5b333b80156100f65760405162461bcd60e51b815260206004820152600d60248201526c53697a65206e6f74207a65726f60981b60448201526064016100ad565b6000546040516340c10f1960e01b8152326004820152600360248201526001600160a01b03909116906340c10f1990604401600060405180830381600087803b15801561014257600080fd5b505af1158015610156573d6000803e3d6000fd5b505050505056fea2646970667358221220c11aa88f5a74c37b7a4ca99c471421d58a5d0f3685d2ce6f8b6a15f211d1960364736f6c63430008140033",
  "devdoc": {
    "kind": "dev",
    "methods": {},
    "version": 1
  },
  "userdoc": {
    "kind": "user",
    "methods": {},
    "version": 1
  },
  "storageLayout": {
    "storage": [
      {
        "astId": 3775,
        "contract": "contracts/Challenge3.sol:Challenge3",
        "label": "nftContract",
        "offset": 0,
        "slot": "0",
        "type": "t_address"
      }
    ],
    "types": {
      "t_address": {
        "encoding": "inplace",
        "label": "address",
        "numberOfBytes": "20"
      }
    }
  }
}